:100000000C94F0010C9418020C9418020C94180231
:100010000C9418020C9418020C9418020C941802F8
:100020000C9418020C9418020C9418020C941802E8
:100030000C9418020C9418020C9418020C941802D8
:100040000C945B0B0C9418020C9405050C94DF04C3
:100050000C9418020C9418020C9418020C941802B8
:100060000C9445050C9418022E0105000000008038
:1000700000000024030540E0E0E040000000200113
:10008000050000000000000000300305E0A0A0A073
:10009000E0000000310305404040404000000032D5
:1000A0000305E020E080E0000000330305E020E0ED
:1000B00020E0000000340305A0A0E02020000000A4
:1000C000350305E080E020E0000000360305E08015
:1000D000E0A0E0000000370305E020202020000021
:1000E00000380305E0A0E0A0E0000000390305E0CF
:1000F000A0E020E00000003A010500800080000040
:100100000000250305A040A000000000002F02050C
:1001100040404080800000002D02050000C000002B
:10012000000000E003050080604060000000002E39
:100130000108000000000000008024060830FCB028
:10014000FCFC34FC3020020800000000000000002D
:1001500030060830488484848448303106083010E2
:1001600010101010103832060878848408102040CF
:10017000FC3306087884047804048478340608186C
:10018000284888FC080808350608FC8080F8040424
:100190008478360608788080F88484847837060866
:1001A000FC04040810204080380608788484788491
:1001B0008484783906087884847C040484783A023C
:1001C0000800C0C00000C0C000250608C4C8102038
:1001D0004C8C00002F020800404040808080002DA1
:1001E0000208000000C000000000E00608BC3C203F
:1001F00020203C3C00002E01080000000000000010
:100200008024060830FCB0FCFC34FC3020020800DE
:1002100000000000000000300608FCFCCCCCCCCC78
:10022000FCFC3106083030303030303030320608D7
:10023000FC0C0CFCFCC0C0FC330608FC0C0CFCFCE9
:100240000C0CFC3406088C8C8CFCFC0C0C0C35065D
:1002500008FCC0C0FCFC0C0CFC360608FCC0C0FC52
:10026000CCCCCCFC370608FC0C0C0C0C0C0C0C3861
:100270000608FCCCCCFCFCCCCCFC390608FC8C8CF5
:10028000FCFC0CFCFC3A020800C0C00000C0C0002E
:10029000250608C4C810204C8C00002F020800401E
:1002A0004040808080002D0208000000C000000057
:1002B00000E00608BC3C2020203C3C00002E01074A
:1002C000000000000000800024040700000000007F
:1002D00000000020010700000000000000003004C2
:1002E00007F09090909090F00031040710101010DB
:1002F00010101000320407F01010F08080F000336E
:100300000407F01010F01010F000340407909090E3
:10031000F010101000350407F08080F01010F0008D
:10032000360407F08080F09090F000370407F0105A
:10033000101010101000380407F09090F09090F01A
:1003400000390407F09090F01010F0003A01070017
:1003500000800080000000250407C0C0102040B0CD
:1003600030002F0207000040C0800000002D02076F
:10037000000000C000000000E00407806090808062
:100380009060000000000000230026002900040403
:10039000040404040404020202020202030303032D
:1003A0000303010204081020408001020408102009
:1003B00001020408102000000000240027002A0089
:1003C00000000000250028002B00000000080002AB
:1003D00001000003040700000000000000008A1074
:1003E00011241FBECFEFD8E0DEBFCDBF24E0A4E8CC
:1003F000B1E001C01D92AA31B207E1F711E0A0E01F
:10040000B1E0EAE7FBE202C005900D92A438B10723
:10041000D9F711E0C0EFD1E004C02197FE010E949E
:10042000F612CF3ED107C9F70E94A50B0C94BB155D
:100430000C94000008950895CF92DF92EF92FF92FE
:100440000F931F93CF93DF936C017A018B01C0E070
:10045000D0E0CE15DF0581F0D8016D918D01D60178
:10046000ED91FC910190F081E02DC6010995892B59
:1004700011F02196EECF7E01C701DF91CF911F9140
:100480000F91FF90EF90DF90CF900895FC01538D76
:10049000448D252F30E0842F90E0821B930B54175E
:1004A00010F0CF96089501970895FC01918D828DEB
:1004B000981781F0828DDF01A80FB11D5D968C9198
:1004C000228D2F5F91E02F3F08F490E0920F928FE2
:1004D00090E008958FEF9FEF0895FC01918D828D3C
:1004E000981731F0828DE80FF11D858D90E0089509
:1004F0008FEF9FEF0895FC01918D228D892F90E061
:1005000081509F4F821B91096FEF70E00E94E212B1
:10051000089587E992E00E947B0221E0892B09F48B
:1005200020E0822F0895FC01848DDF01A80FB11D0A
:10053000A45EBE4F2C91848D90E001968F73992715
:10054000848FA689B7892C93A089B1898C918370F7
:1005500080648C93938D848D981306C00288F389F0
:10056000E02D80818F7D80830895EF92FF920F931D
:100570001F93CF93DF93EC0181E0888F9B8D8C8D4F
:10058000981305C0E889F989808185FD26C0F62E7B
:100590000B8D10E00F5F1F4F0F731127E02E8C8D16
:1005A000E8120CC00FB607FCFACFE889F989808100
:1005B00085FFF5CFCE010E949302F1CF8B8DFE0116
:1005C000E80FF11DE45EFE4FF0829FB7F8940B8FA9
:1005D000EA89FB89808180620AC09FB7F894EE891E
:1005E000FF896083E889F9898081837080648083D2
:1005F0009FBF81E090E0DF91CF911F910F91FF901D
:10060000EF900895CF93DF93EC01888D8823C9F094
:10061000EA89FB89808185FD05C0A889B9898C910B
:1006200086FD0FC00FB607FCF5CF808185FFF2CFA6
:10063000A889B9898C9185FFEDCFCE010E949302E4
:10064000E7CFDF91CF91089580E090E0892B29F0EA
:100650000E94890281110C940000089585ED809319
:10066000BC008091BC0084FDFCCF10927202089502
:100670004091A401262F30E0240F311D2132310595
:10068000DCF4209172022430C9F4FC0180E090E097
:10069000861758F43091A4012191DC01AC57BE4F6C
:1006A000A30FB11D2C930196F3CF8091A401680F85
:1006B0006093A40180E0089581E0089582E00895A8
:1006C0000895E091190280911802E81730F4F0E0E3
:1006D000E65EFD4F808190E008958FEF9FEF0895D3
:1006E0009091190280911802981750F4E92FF0E0C8
:1006F000E65EFD4F208130E09F5F9093190202C0BB
:100700002FEF3FEFC90108958091180290E02091EA
:100710001902821B91090895CF92DF92EF92FF9206
:100720000F931F93CF93DF937C01CB018A0120911C
:100730007302222389F0EB016B01C40ED51ECC1588
:10074000DD0569F06991D701ED91FC910190F0818F
:10075000E02DC7010995F3CF642F0E943803C8012B
:10076000DF91CF911F910F91FF90EF90DF90CF908D
:100770000895CF93DF931F92CDB7DEB769832091A1
:1007800073022223D1F020919602203240F021E022
:1007900030E0FC013383228380E090E015C080913B
:1007A0007402E82FF0E0EB58FD4F998190838F5F42
:1007B000809374028093960205C061E0CE01019699
:1007C0000E94380381E090E00F90DF91CF9108956F
:1007D000089580E090E008950097B1F09C01205EBC
:1007E00031402134310560F024553F4F213431052B
:1007F00048F08F5D91098134910530F484E00895CB
:1008000082E0089583E0089580E008950E944E08F4
:100810000E94EC0390911702911131C0811107C021
:100820001092170210921302109212020895823051
:1008300049F480911202909113028F309105B0F02B
:1008400081E01BC0833049F4809112029091130221
:100850008F30910558F082E010C0843081F480918F
:100860001202909113028F30910530F4019690930B
:10087000130280931202089583E080931702089573
:100880000E94FC123F924F925F926F927F928F92E2
:100890009F92AF92BF92CF92DF92EF92FF920F930F
:1008A0001F93CF93DF93382EE82EF12C3701660C7F
:1008B000771C660C771C85E0681A710800E211E06D
:1008C000C0E0D1E093E2C92ED12C60E08AE0311083
:1008D00013C00E94D2098FEF0E944C078FEF0E9435
:1008E0004C078FEF0E944C078FEF0E944C0761E08E
:1008F0008AE00E94D20933C00E94D2098880998080
:10090000AA80BB80412C512CD501C401042C04C009
:10091000B695A795979587950A94D2F70E944C07AC
:1009200098E0490E511CE0E24E16510469F761E06F
:100930008AE00E94D209F801B08060E08B2D0E940D
:10094000D209F1E0EF16F10419F0C3010197F1F7B4
:1009500061E08B2D0E94D209C6010197F1F70F5F6C
:100960001F4F249680E291E08C179D0709F0ADCFD0
:10097000DF91CF911F910F91FF90EF90DF90CF907B
:10098000BF90AF909F908F907F906F905F904F90AF
:100990003F900895CF93DF93C4E1D2E0688180E077
:1009A00090E00E94EE11698181E090E00E94EE11DA
:1009B0006A8182E090E0DF91CF910C94EE111F925A
:1009C0000F920FB60F9211242F933F934F935F9383
:1009D0006F937F938F939F93AF93BF93EF93FF9307
:1009E00087E992E00E949302FF91EF91BF91AF914E
:1009F0009F918F917F916F915F914F913F912F9137
:100A00000F900FBE0F901F9018951F920F920FB668
:100A10000F9211242F935F936F937F938F939F93E4
:100A2000AF93BF93EF93FF93E091A702F091A802D9
:100A30008081E091AD02F091AE0282FD16C020816E
:100A40008091B00290E001966FEF70E00E94E21298
:100A50009091B102981751F0E091B002F0E0E956A0
:100A6000FD4F258F8093B00201C08081FF91EF91EF
:100A7000BF91AF919F918F917F916F915F912F91D6
:100A80000F900FBE0F901F9018951F920F920FB6E8
:100A90000F9211242F933F934F935F936F937F9304
:100AA0008F939F93AF93BF93EF93FF938091B90080
:100AB000887F803609F49CC068F5883209F45BC0F1
:100AC00090F4803109F454C038F4882309F4F6C056
:100AD000883009F44DC0F6C0883109F44CC080322A
:100AE00009F45DC0EFC0803409F468C048F4803375
:100AF00009F455C0883309F0E5C080937002D8C06E
:100B0000803509F44FC0883509F45DC0883409F098
:100B1000D9C0D6C0883909F4C7C0A8F4883709F409
:100B200067C038F4883609F463C0803709F460C0C0
:100B3000C9C0883809F4B8C0803909F45FC080386A
:100B400009F0C0C05BC0803B09F486C038F4803A2D
:100B500009F466C0883A09F47FC0B4C0803C09F447
:100B6000A7C0883C09F4A4C0883B09F48AC0AAC085
:100B700080914D0210C090916F0280916E02981783
:100B800070F5E0916F0281E08E0F80936F02F0E0CC
:100B9000E25BFD4F80818093BB0085EC86C0809333
:100BA00070028EC0E0916F0281E08E0F80936F0221
:100BB0008091BB00F0E0E25BFD4F808390916F027B
:100BC00080916E026EC0E0916F0281E08E0F809383
:100BD0006F028091BB00F0E0E25BFD4F808380916B
:100BE000710281116DC081E080934C0284EA61C082
:100BF00083E0809372021092C601CFCF8091C6012C
:100C0000803208F051C0E091C60181E08E0F8093E0
:100C1000C6018091BB00F0E0EA55FE4F8083BDCF56
:100C200085EC8093BC00109272028091C6018032E4
:100C300030F4E091C601F0E0EA55FE4F1082609179
:100C4000C60170E0E091C701F091C80186EA91E029
:100C500009951092C60136C084E08093720210920A
:100C6000A5011092A401E091C901F091CA01099572
:100C70008091A401811105C081E08093A4011092AC
:100C80008401E091A50181E08E0F8093A501F0E041
:100C9000EC57FE4F80818093BB009091A50180911D
:100CA000A401981708F479CF85E88093BC000AC0A6
:100CB00085EC8093BC001092720204C01092700206
:100CC0000E942E03FF91EF91BF91AF919F918F9161
:100CD0007F916F915F914F913F912F910F900FBE38
:100CE0000F901F901895282F30919602313208F0FE
:100CF0004AC0809172028111FCCF9091950242E02E
:100D000040937202209371022FEF20937002109291
:100D10006F0230936E02E5E7F2E0AEE4B2E020E06D
:100D2000321721F041914D932F5FFACF10924D026F
:100D300020914D02990F922B90934D0290914C026D
:100D4000913061F410924C0290914D029093BB004F
:100D50009091BC0093FDF8CF95EC01C095EE909377
:100D6000BC00909172029230E1F3909170029F3F2B
:100D700079F080917002803241F08091700280336E
:100D800031F084E005C081E003C082E001C083E06F
:100D900010927402109296021092730208950F93AB
:100DA0001F93CF9381E08093730288E6809395022E
:100DB000109274021092960260E083EF93E00E941A
:100DC000B90304E412E0F8018081CAE06C2F0E94AC
:100DD000D612692FF0E18F9F600D112483EF93E00D
:100DE0000E94B903F80181816C2F0E94D612692FED
:100DF000F0E18F9F600D112483EF93E00E94B9030F
:100E0000F80182816C2F0E94D612692FF0E18F9F2A
:100E1000600D112483EF93E00E94B903F8018381F0
:100E20006C2F0E94D612692FF0E18F9F600D112464
:100E300083EF93E00E94B903F80184816C2F0E9434
:100E4000D612692FF0E18F9F600D112483EF93E09C
:100E50000E94B903F80185816C2F0E94D612692F78
:100E6000F0E18F9F600D112483EF93E00E94B9039E
:100E7000F80186816C2F0E94D612692FF0E18F9FB6
:100E8000600D112483EF93E00E94B90381E0CF91BC
:100E90001F910F910C9473060F931F93CF93DF93C1
:100EA000C0E0D0E0082F10E0B8010C2E02C075950C
:100EB00067950A94E2F761708CE00E94D20961E0C4
:100EC0008DE00E94D20960E08DE00E94D209219657
:100ED000C830D10549F7DF91CF911F910F91089547
:100EE0002F923F924F925F926F927F928F929F923A
:100EF000AF92BF92CF92DF92EF92FF920F931F9328
:100F0000CF93DF93CDB7DEB760970FB6F894DEBF0F
:100F10000FBECDBFC82E162F042F2F87388B8AE324
:100F2000E82E82E0F82ED12C88E090E03C01641A93
:100F30007108812C912C54018394DC1409F494C021
:100F4000113208F08CC0093008F089C0F701908197
:100F50006F857889FB01849198131BC04BE050E0AA
:100F6000CE0101960E94E2108B8190E0D30186159C
:100F700097050CF4DC01FA81FC878F2F90E020E2CA
:100F800030E0211B3109821793070CF49C01902F4C
:100F90000FC0655F7F4F8111DDCF61C0813210F1DD
:100FA0008F5F482F411B50E042175307BCF39F5FF0
:100FB000492F401B50E04A175B070CF04DC0E4E09E
:100FC000F0E0EC0FFD1FE40FF51F408164E0969FF9
:100FD000F0011124E050FF4F812F642F70E07E87D5
:100FE0006D87DFCF9930E0F62080318042805380DA
:100FF00067E070E0641B750BAB016D857E8502C0F8
:10100000759567954A95E2F760FF13C0B501A40195
:10101000082E04C0440F551F661F771F0A94D2F78D
:10102000409550956095709524223522462257228E
:101030000EC0B501A401082E04C0440F551F661F41
:10104000771F0A94D2F7242A352A462A572A208263
:10105000318242825382A4CF6C856F5F160FD39486
:101060007FEFE71AF70A69CF812F60960FB6F894E1
:10107000DEBF0FBECDBFDF91CF911F910F91FF90CB
:10108000EF90DF90CF90BF90AF909F908F907F9028
:101090006F905F904F903F902F90089582E48093DF
:1010A0007C0080917A00806480937A0080917A003D
:1010B00086FDFCCF809178002091790090E0922B02
:1010C000089581E08093730288E6809395021092E0
:1010D00074021092960260E083EF93E00E94B903DD
:1010E00081E00E947306809172028111FCCF81E041
:1010F00080937202809371029FEF9093700210921E
:101100006F0296E090936E0280934D0280914D02A3
:10111000806D80934D0280914C02813061F4109279
:101120004C0280914D028093BB008091BC0083FDF6
:10113000F8CF85EC01C085EE8093BC0080917202EF
:101140008130E1F380916F02873018F490916F0243
:1011500001C097E0EEE4F2E0AAE1B2E080E0891796
:1011600021F021912D938F5FFACF10921902809375
:10117000180283EF93E00E947003982F969596953E
:1011800096959E70292F220F220F920F8F70890F34
:101190008093440283EF93E00E947003982F92950E
:1011A0009F708F702AE0929F800D112480934502DA
:1011B00083EF93E00E947003982F969596959695ED
:1011C0009670292F220F220F920F8F70890F809314
:1011D000460283EF93E00E947003982F92959F70D0
:1011E0008F702AE0929F800D11248093470283EF35
:1011F00093E00E947003982F92959F708F702AE061
:10120000929F800D11248093480283EF93E00E9407
:101210007003982F92959F708F702AE0929F800D97
:1012200011248093490283EF93E00E947003982F6A
:1012300092959F708F702AE0929F800D112490E00C
:1012400090934B0280934A0208958F929F92AF929F
:10125000BF92CF92DF92EF92FF92CF93DF93A09154
:101260000604882311F03A2F01C030E08091070472
:1012700090E0880F991F8C579C4FC0900C04D09021
:101280000D04E0900E04F0900F0440E050E0BA012D
:10129000FC01C591D49128812A23231314C04A014B
:1012A0005B012FEF821A920AA20AB20A4C155D0561
:1012B0006E057F0518F4B501A401EACF30E020E007
:1012C00080E090E003C0342F252FCB01632F722FD5
:1012D000DF91CF91FF90EF90DF90CF90BF90AF90D4
:1012E0009F908F9008953FB7F89480911604909145
:1012F0001704A0911804B091190426B5A89B05C045
:101300002F3F19F00196A11DB11D3FBFBA2FA92F84
:10131000982F8827820F911DA11DB11DBC01CD0101
:1013200042E0660F771F881F991F4A95D1F70895ED
:101330008F929F92AF92BF92CF92DF92EF92FF92E5
:101340006B017C010E9473094B015C01C114D10443
:10135000E104F104F1F00E947309DC01CB0188196A
:101360009909AA09BB09883E9340A105B10570F30C
:1013700021E0C21AD108E108F10888EE880E83E066
:10138000981EA11CB11CC114D104E104F10419F789
:10139000DDCFFF90EF90DF90CF90BF90AF909F9008
:1013A0008F90089590E0FC01E653FC4F2491FC01DE
:1013B000EE55FC4F3491FC01E257FC4FE491EE23D3
:1013C00009F43CC0222339F1233091F038F4213064
:1013D000A9F0223001F584B58F7D12C0273091F03D
:1013E0002830A1F02430B9F4809180008F7D03C0B3
:1013F000809180008F77809380000DC084B58F77B7
:1014000084BD09C08091B0008F7703C08091B00087
:101410008F7D8093B000F0E0EE0FFF1FE054FC4F93
:10142000A591B4919FB7F894611104C08C91309547
:10143000382302C0EC913E2B3C939FBF0895CF937D
:10144000DF9390E0FC01EE55FC4F2491FC01E25744
:10145000FC4F8491882361F190E0880F991FFC0173
:10146000EA54FC4FC591D491FC01E054FC4FA59186
:10147000B491611109C09FB7F894888120958223A7
:101480008883EC912E230BC0623061F49FB7F894EF
:101490008881322F309583238883EC912E2B2C93D7
:1014A0009FBF06C08FB7F894E8812E2B28838FBF8B
:1014B000DF91CF910895CF92DF92EF92FF920F9339
:1014C0001F93CF93DF93CDB7DEB7C054D1400FB693
:1014D000F894DEBF0FBECDBF2FB7F89480911104F2
:1014E00090911204A0911304B09114042FBF409165
:1014F00008045091090460910A0470910B048C0156
:101500009D01041B150B260B370BB901A801403DAB
:1015100057406105710518F480911004BCC0809398
:10152000080490930904A0930A04B0930B0410924A
:10153000030410920204109201041092000410920D
:10154000FF0361E0809104040E94D2096AEF70E019
:1015500080E090E00E94980961E0809104040E947C
:101560001F0A60E0809104040E94D20964E170E0E7
:1015700080E090E00E949809F89461E08091040472
:101580000E94D2098BE990E00197F1F762E0809127
:1015900004040E941F0A83E290E00197F1F780E0C3
:1015A0000E942509672B682B692B21F410921004E7
:1015B00078943EC081E00E942509672B682B692B37
:1015C000A9F38E010F5F1F4F6E012FEBC21A2EEF92
:1015D000D20A780180E00E942509F70160837183B7
:1015E0008283938381E00E942509F70164837583D8
:1015F00086839783F8E0EF0EF11CEC14FD0451F79D
:10160000789420E030E0F801C080D180E280F3805F
:101610004481558166817781C114D104E104F104CC
:1016200029F0411551056105710521F4109210044E
:1016300080E031C0F90183E0F595E7958A95E1F7FF
:10164000E150FC4F8081880FC416D506E606F706E8
:1016500008F4816080832F5F3F4F085F1F4F28325F
:10166000310589F62091030430E04091FF03809119
:10167000000490E0840F911D40910104840F911D9E
:1016800040910204840F911D99272817390771F69C
:1016900081E080931004C05CDE4F0FB6F894DEBF8B
:1016A0000FBECDBFDF91CF911F910F91FF90EF90B3
:1016B000DF90CF9008951F920F920FB60F921124D2
:1016C0002F933F938F939F93AF93BF938091110478
:1016D00090911204A0911304B09114043091150458
:1016E00023E0230F2D3720F40196A11DB11D05C065
:1016F00026E8230F0296A11DB11D209315048093A7
:10170000110490931204A0931304B09314048091D5
:10171000160490911704A0911804B0911904019631
:10172000A11DB11D8093160490931704A093180473
:10173000B0931904BF91AF919F918F913F912F91D9
:101740000F900FBE0F901F901895CF93DF931F92AD
:10175000CDB7DEB7789484B5826084BD84B58160EE
:1017600084BD85B5826085BD85B5816085BD80916C
:101770006E00816080936E001092810080918100E4
:1017800082608093810080918100816080938100DC
:10179000809180008160809380008091B10084609E
:1017A0008093B1008091B00081608093B0008091FF
:1017B0007A00846080937A0080917A0082608093BE
:1017C0007A0080917A00816080937A0080917A001B
:1017D000806880937A001092C10061E08EE00E94E0
:1017E0001F0A61E08FE00E941F0A61E082E00E9410
:1017F0001F0A61E084E00E941F0A61E085E00E9408
:101800001F0A61E086E00E941F0A61E087E00E94F3
:101810001F0A61E088E00E941F0A61E08CE00E94DC
:101820001F0A61E08DE00E941F0A61E08AE00E94C9
:101830001F0A61E08EE00E94D20961E08FE00E9401
:10184000D20961E082E00E94D20961E084E00E9456
:10185000D20961E085E00E94D20961E086E00E9441
:10186000D20961E087E00E94D20961E088E00E942D
:10187000D209E091A702F091A80282E08083E09172
:10188000A302F091A4021082E091A502F091A602B9
:1018900080E180831092AF02E091AB02F091AC0244
:1018A00086E08083E091A902F091AA0280818061A4
:1018B0008083E091A902F091AA02808188608083F0
:1018C000E091A902F091AA02808180688083E09172
:1018D000A902F091AA0280818F7D808362E08091CD
:1018E00004040E941F0A80E398EFAFEFBFEF8093DC
:1018F000080490930904A0930A04B0930B04109277
:10190000190210921802109274021092960210920C
:10191000720221E02093710210924C0261E082E198
:101920000E94D20961E083E10E94D2098091B9004E
:101930008E7F8093B9008091B9008D7F8093B9002C
:1019400088E48093B80085E48093BC008AE192E04B
:101950009093CA018093C9018BE192E09093C801F2
:101960008093C70181E08093730288E6809395029B
:10197000109274021092960267E083EF93E00E9447
:10198000B90360E983EF93E00E94B90381E00E940C
:10199000730680E090E00E94E61189838093140230
:1019A00081E090E00E94E6118093150282E090E0D1
:1019B0000E94E6118093160299819A3AE9F08AEA28
:1019C0008093140282E380931502109216020E9403
:1019D000CA0483E190E090934B0280934A02E1E0D5
:1019E000E0934902E09348021092460210924502A9
:1019F000109244020E94CF0609E711E06CE4262E03
:101A000061E0362E74E7C72E71E0D72EEAE6EE2E9F
:101A1000E1E0FE2E0E94060480911702882309F45B
:101A2000EAC1823049F08330A9F0813009F0E3C186
:101A3000809115028F5F03C08091150281508093C1
:101A400015020E94CA0410921702109213021092FB
:101A50001202D1C10E944E080E94EC032091120292
:101A6000309113022F5F3F4F3093130220931202E5
:101A70002233310508F0DAC08111BDC10E945B0A32
:101A8000882399F1809105048B3029F170F18551FB
:101A9000823058F56091FF0370E080E090E00E9492
:101AA000EB1020E030E040E853E40E9428114B01A5
:101AB0005C016091000470E080E090E00E94ED1015
:101AC000A50194010E9434122DEC3CEC4CEC5DE33A
:101AD0000E94281107C06091FF0370E080E090E051
:101AE0000E94EB102B013C0106C0412C512C50EC04
:101AF000652E5FE7752E40920E0250920F026092A3
:101B00001002709211020E945B0A882309F440C0FF
:101B1000809105048B3029F0D8F18551823058F03E
:101B200037C06091010470E080E090E00E94EB100B
:101B30004B015C0133C0F0910104F9836F2F6F7783
:101B400070E080E090E00E94ED1020E030E040E89E
:101B500053E40E9428114B015C016091020470E083
:101B600080E090E00E94ED10A50194010E943412E3
:101B70002DEC3CEC4CEC5DE30E9428114B015C0128
:101B8000298127FF0BC0B7FAB094B7F8B09406C00C
:101B9000812C912C40ECA42E4FE7B42E40E250E073
:101BA0006FEF70E080E091E00E940113C301B20189
:101BB0000E94A0127F936F931F9280EE8F93C501B6
:101BC000B4010E94A0127F936F933F922F928AE3F9
:101BD00092E09F938F930E940813EAE3F2E0019052
:101BE0000020E9F73197CF018A5392402DEB32E084
:101BF00041E060E00E9470070FB6F894DEBF0FBEB0
:101C0000CDBF38EEA32E33E0B32E809115020E9493
:101C1000420491E0A91AB108C1F740E250E06FEF29
:101C200070E080E091E00E9401130DCF293C310566
:101C300008F4E1C08111DFC0109217021092130264
:101C4000109212020E946108B0904602A0904502D4
:101C500040E250E06FEF70E080E091E00E940113FD
:101C6000812C0E94060480911702882309F462C027
:101C70008230A9F0833019F1813009F05BC0811006
:101C800005C0E6E1EB1538F0B3942EC0FAE3FA157F
:101C900020F0A39429C0B12C27C0A12C25C081100D
:101CA00007C0BA9426E12B15F8F427E1B22E1CC028
:101CB000AA948AE38A15C0F49BE3A92E15C00E945A
:101CC0004E080E94EC0320911202309113022F5F04
:101CD0003F4F30931302209312022233310558F400
:101CE000811128C091E089261092170210921302E8
:101CF000109212021FC0253F3140E0F081111AC03E
:101D000080914A0290914B02805D974090934B02E4
:101D100080934A02B0924602A09245021092440279
:101D20000E94CF0610921702109213021092120214
:101D3000912C02C09924939481100DC00E946108D7
:101D40008091440280FF2FC01F92AF928AE591E0FC
:101D50009F938F930CC00E9461088091440280FF82
:101D600022C01F92BF92E2E6F1E0FF93EF938AE375
:101D700092E09F938F930E940813EAE3F2E00190B0
:101D80000020E9F73197CF018A53924026EF31E0E6
:101D900040E061E00E9470070F900F900F900F904D
:101DA0000F900F9020C01F92AF921F92BF921F936F
:101DB0000F938AE392E09F938F930E940813EAE3C4
:101DC000F2E001900020E9F73197CF018A53924069
:101DD00026EF31E040E061E00E9470070FB6F89412
:101DE000DEBF0FBECDBF809115020E94420491E07C
:101DF000991609F436CF87E992E00E947B02181603
:101E000019060CF0FAC0A0900D02B12C87E992E0FF
:101E10000E947B02A816B90639F087E992E00E9479
:101E20007B0280930D0210C087E992E00E947B0242
:101E3000A816B90649F480910B0290910C02019604
:101E400090930C0280930B0280910B0290910C02F4
:101E5000039708F4D2C080900D02912C8BECA82E31
:101E600081E0B82EC5018B5C91408815990530F052
:101E70008091CB018A3A09F0BAC03EC02FB7F894DE
:101E80008091110490911204A0911304B091140454
:101E90002FBF80939F029093A002A093A102B093C2
:101EA000A20287E992E00E94550297FF2FC12FB747
:101EB000F8948091110490911204A0911304B091B0
:101EC00014042FBF40919F025091A0026091A10283
:101ED0007091A202841B950BA60BB70B40919B023D
:101EE00050919C0260919D0270919E02841795070B
:101EF000A607B707B0F2BCCF8091CC018B3B09F0AD
:101F000076C08091CD01823041F118F4813041F0EA
:101F10006EC0833009F442C0843009F44FC067C0FA
:101F20008091CE01843608F062C03091CF019FEFDE
:101F3000930F9C3008F05BC02091D0019FEF920F6F
:101F40009F3108F054C090E090934B0280934A0276
:101F500030934902209348021EC04091CE0148317F
:101F600008F045C09091CF019C3308F040C08091AB
:101F7000D0018C33E0F520914A0230914B02205D74
:101F8000374030934B0220934A024093460290938D
:101F90004502809344020E94CF0606C08091CE0184
:101FA000809315020E94CA0440910D0250E06BEC30
:101FB00071E087E992E00E941C0219C08091CE0175
:101FC0008330A8F4809316020E94CA0440910D0247
:101FD00050E06BEC71E087E992E00E941C0240E265
:101FE00050E06FEF70E080E091E00E9401131092EA
:101FF0000C0210920B0210920D020E946108809157
:102000001602811127C020914402809146029091CE
:10201000450220FF07C01F929F931F928F931F932B
:102020000F9306C01F929F931F928F93FF92EF9280
:10203000EAE3F2E0FF93EF930E940813EAE3F2E091
:1020400001900020E9F73197CF018A53924026EFA3
:1020500031E028C0813049F5209144028091460248
:102060009091450220FF07C01F929F931F928F936C
:102070001F930F9306C01F929F931F928F93FF92FF
:10208000EF92EAE3F2E0FF93EF930E940813EAE392
:10209000F2E001900020E9F73197CF018A53924096
:1020A0002FE231E040E061E023C0823041F58091D1
:1020B00044021F928F93809145021F928F938091CB
:1020C00046021F928F93DF92CF92EAE3F2E0FF93F2
:1020D000EF930E940813EAE3F2E001900020E9F791
:1020E0003197CF018A53924028E630E041E062E028
:1020F0000E9470070FB6F894DEBF0FBECDBF80916F
:1021000015020E9442040E94240384CCF5018193AD
:102110005F01A8CEE7E9F2E01382128288EE93E035
:10212000A0E0B0E084839583A683B7832CE231E0FE
:102130003183208325EC30E03587248724EC30E0A0
:102140003787268720EC30E0318B208B21EC30E084
:10215000338B228B22EC30E0358B248B26EC30E065
:10216000378B268B118E128E138E148EE3EFF3E0D5
:102170001382128284839583A683B7838EE391E0D2
:1021800091838083AFEFB3E08BE015968C93159726
:1021900016968C931697EDEAF3E0E4911796EC937C
:1021A0001797E9E9F3E0E4911896EC93189740E863
:1021B0005EE360E070E01D964D935D936D937C93BC
:1021C00050970895FB01DC0102C005900D9241502B
:1021D0005040D8F70895E89409C097FB3EF49095D5
:1021E0008095709561957F4F8F4F9F4F9923A9F0F0
:1021F000F92F96E9BB279395F6958795779567957F
:10220000B795F111F8CFFAF4BB0F11F460FF1BC0C2
:102210006F5F7F4F8F4F9F4F16C0882311F096E955
:1022200011C0772321F09EE8872F762F05C0662303
:1022300071F096E8862F70E060E02AF09A95660FBC
:10224000771F881FDAF7880F9695879597F9089575
:102250000E943B110C94AC110E949E1138F00E9418
:10226000A51120F0952311F00C9495110C949B115D
:1022700011240C94E0110E94BD1170F3959FC1F3DD
:10228000950F50E0551F629FF001729FBB27F00D24
:10229000B11D639FAA27F00DB11DAA1F649F662779
:1022A000B00DA11D661F829F2227B00DA11D621FC8
:1022B000739FB00DA11D621F839FA00D611D221F82
:1022C000749F3327A00D611D231F849F600D211D66
:1022D000822F762F6A2F11249F5750409AF0F1F0E9
:1022E00088234AF0EE0FFF1FBB1F661F771F881F52
:1022F00091505040A9F79E3F510580F00C949511E4
:102300000C94E0115F3FE4F3983ED4F38695779503
:102310006795B795F795E7959F5FC1F7FE2B880FF7
:10232000911D9695879597F9089597F99F6780E88D
:1023300070E060E008959FEF80EC089500240A9417
:102340001616170618060906089500240A94121690
:102350001306140605060895092E0394000C11F4C3
:10236000882352F0BB0F40F4BF2B11F460FF04C070
:102370006F5F7F4F8F4F9F4F089557FD9058440FC9
:10238000551F59F05F3F71F04795880F97FB991FD4
:1023900061F09F3F79F08795089512161306140691
:1023A000551FF2CF4695F1DF08C01616170618061E
:1023B000991FF1CF86957105610508940895E894F9
:1023C000BB2766277727CB0197F90895F999FECFA8
:1023D00092BD81BDF89A992780B50895262FF99965
:1023E000FECF1FBA92BD81BD20BD0FB6F894FA9AF8
:1023F000F99A0FBE019608952F923F924F925F92E5
:102400006F927F928F929F92AF92BF92CF92DF9204
:10241000EF92FF920F931F93CF93DF93CDB7DEB769
:10242000CA1BDB0B0FB6F894DEBF0FBECDBF0994FD
:102430002A88398848885F846E847D848C849B8454
:10244000AA84B984C884DF80EE80FD800C811B8162
:10245000AA81B981CE0FD11D0FB6F894DEBF0FBE91
:10246000CDBFED0108955058BB27AA270E944B12FB
:102470000C94AC110E949E1138F00E94A51120F01E
:1024800039F49F3F19F426F40C949B110EF4E09557
:10249000E7FB0C949511E92F0E94BD1158F3BA1770
:1024A000620773078407950720F079F4A6F50C946A
:1024B000DF110EF4E0950B2EBA2FA02D0B01B90100
:1024C00090010C01CA01A0011124FF27591B99F0AA
:1024D000593F50F4503E68F11A16F040A22F232FB6
:1024E000342F4427585FF3CF469537952795A79506
:1024F000F0405395C9F77EF41F16BA0B620B730BAD
:10250000840BBAF09150A1F0FF0FBB1F661F771F1D
:10251000881FC2F70EC0BA0F621F731F841F48F4D2
:10252000879577956795B795F7959E3F08F0B0CF5B
:102530009395880F08F09927EE0F97958795089542
:102540000E94A7126894B1110C94E01108950E94A2
:10255000C51188F09F5798F0B92F9927B751B0F05F
:10256000E1F0660F771F881F991F1AF0BA95C9F717
:1025700014C0B13091F00E94DF11B1E008950C94C5
:10258000DF11672F782F8827B85F39F0B93FCCF378
:10259000869577956795B395D9F73EF49095809594
:1025A000709561957F4F8F4F9F4F0895991B79E0EC
:1025B00004C0991F961708F0961B881F7A95C9F7D3
:1025C00080950895AA1BBB1B51E107C0AA1FBB1F22
:1025D000A617B70710F0A61BB70B881F991F5A95AF
:1025E000A9F780959095BC01CD010895EE0FFF1FCE
:1025F0000590F491E02D099481E090E0F8940C941A
:10260000BB15DC0101C06D9341505040E0F70895C7
:10261000AEE0B0E0EEE0F3E10C940A120D891E8901
:1026200086E08C831A8309838FEF9FE79E838D83D7
:10263000AE01475E5F4F6F89788DCE0101960E9493
:102640002A13EF81F885E00FF11F10822E96E4E047
:102650000C942612ABE0B0E0E0E3F3E10C94FC1143
:102660006C017B018A01FC0117821682838181FF44
:10267000CCC1CE0101963C01F6019381F70193FD97
:10268000859193FF81917F01882309F4BAC1853236
:1026900039F493FD859193FF81917F01853229F46F
:1026A000B60190E00E942115E7CF912C212C312C0E
:1026B000FFE1F315D8F08B3279F038F4803279F0FD
:1026C0008332A1F4232D20611DC08D3261F080334F
:1026D00069F4232D216016C0832D8260382EE32DEE
:1026E000E4603E2E2AC0F32DF8601DC037FC2DC0DB
:1026F00020ED280F2A3040F08E32B9F436FC81C12B
:10270000232D2064322E19C036FE06C08AE0989E22
:10271000200D1124922E11C0EAE02E9E200D1124CE
:10272000222EF32DF0623F2E08C08C3621F4832D2B
:102730008068382E02C0883641F4F70193FD8591F8
:1027400093FF81917F018111B3CF982F9F7D955485
:10275000933028F40C5F1F4F9FE399830DC083369D
:1027600031F0833771F0833509F059C021C0F80189
:10277000808189830E5F1F4F88248394912C53019D
:1027800013C02801F2E04F0E511CF801A080B18067
:1027900036FE03C0692D70E002C06FEF7FEFC50108
:1027A0000E9416154C018201F32DFF773F2E16C0B3
:1027B000280122E0420E511CF801A080B18036FEB3
:1027C00003C0692D70E002C06FEF7FEFC5010E946A
:1027D0000B154C01F32DF0683F2E820133FC1BC01A
:1027E000822D90E088169906B0F4B60180E290E060
:1027F0000E9421152A94F4CFF50137FC859137FE0C
:1028000081915F01B60190E00E94211521102A9468
:1028100021E0821A91088114910471F7E8C084368E
:1028200011F0893641F5F80137FE07C060817181EA
:10283000828193810C5F1F4F08C060817181072ED8
:10284000000C880B990B0E5F1F4FF32DFF763F2E68
:1028500097FF09C090958095709561957F4F8F4F38
:102860009F4FF0683F2E2AE030E0A3010E945D15E3
:10287000882E861845C0853731F4232D2F7EB22E41
:102880002AE030E025C0932D997FB92E8F36C1F014
:1028900018F4883579F0B5C0803719F0883721F001
:1028A000B0C0E92FE061BE2EB4FE0DC0FB2DF46078
:1028B000BF2E09C034FE0AC0292F2660B22E06C0E2
:1028C00028E030E005C020E130E002C020E132E045
:1028D000F801B7FE07C060817181828193810C5F2E
:1028E0001F4F06C06081718180E090E00E5F1F4F36
:1028F000A3010E945D15882E8618FB2DFF773F2EC1
:1029000036FE0DC0232D2E7FA22E891458F434FEDE
:102910000BC032FC09C0832D8E7EA82E05C0B82CBA
:10292000A32C03C0B82C01C0B92CA4FE0FC0FE011B
:10293000E80DF11D8081803321F49A2D997EA92E16
:1029400009C0A2FE06C0B394B39404C08A2D867851
:1029500009F0B394A3FC11C0A0FE06C0B21488F421
:10296000280C922C9B180EC0B21460F4B60180E2C1
:1029700090E00E942115B394F7CFB21418F42B18ED
:1029800002C0982C212CA4FE10C0B60180E390E078
:102990000E942115A2FE17C0A1FC03C088E790E0A9
:1029A00002C088E590E0B6010CC08A2D867859F007
:1029B000A1FE02C08BE201C080E2A7FC8DE2B6015D
:1029C00090E00E942115891438F4B60180E390E06C
:1029D0000E9421159A94F7CF8A94F301E80DF11D16
:1029E0008081B60190E00E9421158110F5CF222050
:1029F00009F442CEB60180E290E00E9421152A94AB
:102A0000F6CFF6018681978102C08FEF9FEF2B965C
:102A1000E2E10C941812FC01059061507040011025
:102A2000D8F7809590958E0F9F1F0895FC016150F7
:102A3000704001900110D8F7809590958E0F9F1FE0
:102A400008950F931F93CF93DF93FB01238121FD03
:102A500003C08FEF9FEF2CC022FF16C04681578125
:102A6000248135814217530744F4A081B1819D012F
:102A70002F5F3F4F318320838C93268137812F5FD7
:102A80003F4F3783268314C08B01EC01FB01008488
:102A9000F185E02D0995892BE1F6D80116968D91E7
:102AA0009C911797019617969C938E931697CE013B
:102AB000DF91CF911F910F910895FA01AA27283035
:102AC00051F1203181F1E8946F936E7F6E5F7F4FFB
:102AD0008F4F9F4FAF4FB1E03ED0B4E03CD0670F77
:102AE000781F891F9A1FA11D680F791F8A1F911DCA
:102AF000A11D6A0F711D811D911DA11D20D009F41A
:102B000068943F912AE0269F11243019305D31935B
:102B1000DEF6CF010895462F4770405D4193B3E044
:102B20000FD0C9F7F6CF462F4F70405D4A3318F0EB
:102B3000495D31FD4052419302D0A9F7EACFB4E09C
:102B4000A6959795879577956795BA95C9F7009754
:102B50006105710508959B01AC010A2E06945795F5
:102B6000479537952795BA95C9F7620F731F841F4C
:0A2B7000951FA01D0895F894FFCFF3
:102B7A00FFFFFFFFFFFFFFFFFFFFFFFFFFFFFFFF5B
:102B8A00FFFFFFFFFFFFFFFFFFFFFFFFFFFFFFFF4B
:102B9A000E0F02040506070800000000B5021C0219
:102BAA00460202037B0255026D0200000000B903CF
:102BBA008C03E903600384037003610325303264E4
:102BCA002563202530326425250024243A25303215
:102BDA006400253032643A242400253032642025EA
:102BEA0030326400253032643A253032643A253076
:042BFA003264000041
:107E0000112484B714BE81FFF0D085E080938100F7
:107E100082E08093C00088E18093C10086E0809377
:107E2000C20080E18093C4008EE0C9D0259A86E02C
:107E300020E33CEF91E0309385002093840096BBD3
:107E4000B09BFECF1D9AA8958150A9F7CC24DD24C4
:107E500088248394B5E0AB2EA1E19A2EF3E0BF2EE7
:107E6000A2D0813461F49FD0082FAFD0023811F036
:107E7000013811F484E001C083E08DD089C08234E0
:107E800011F484E103C0853419F485E0A6D080C0E4
:107E9000853579F488D0E82EFF2485D0082F10E0AE
:107EA000102F00270E291F29000F111F8ED06801E7
:107EB0006FC0863521F484E090D080E0DECF843638
:107EC00009F040C070D06FD0082F6DD080E0C81688
:107ED00080E7D80618F4F601B7BEE895C0E0D1E017
:107EE00062D089930C17E1F7F0E0CF16F0E7DF06D8
:107EF00018F0F601B7BEE89568D007B600FCFDCFD4
:107F0000A601A0E0B1E02C9130E011968C91119780
:107F100090E0982F8827822B932B1296FA010C0160
:107F200087BEE89511244E5F5F4FF1E0A038BF0790
:107F300051F7F601A7BEE89507B600FCFDCF97BE46
:107F4000E89526C08437B1F42ED02DD0F82E2BD052
:107F50003CD0F601EF2C8F010F5F1F4F84911BD097
:107F6000EA94F801C1F70894C11CD11CFA94CF0C13
:107F7000D11C0EC0853739F428D08EE10CD085E9AC
:107F80000AD08FE07ACF813511F488E018D01DD067
:107F900080E101D065CF982F8091C00085FFFCCF94
:107FA0009093C60008958091C00087FFFCCF809118
:107FB000C00084FD01C0A8958091C6000895E0E648
:107FC000F0E098E1908380830895EDDF803219F02E
:107FD00088E0F5DFFFCF84E1DECF1F93182FE3DFCA
:107FE0001150E9F7F2DF1F91089580E0E8DFEE27F6
:047FF000FF270994CA
:027FFE00040479
:0400000300007E007B
:00000001FF
